S00E00004B65726E656C2E73726563B5
S113000071C0000081C000007FC000007DC00000FE
S11300107BC0000079C0000077C0000075C00000FC
S113002073C0000071C000006FC000006DC000000C
S11300306BC000006AC0000067C0000065C000001B
S113004063C0000061C000005FC000005DC000002C
S11300505BC0000059C0000057C0000055C000003C
S113006053C0000051C000004FC000004DC000004C
S11300704BC0000049C0000047C0000045C000005C
S113008043C0000041C000003FC000003DC000006C
S11300903BC0000039C0000037C0000035C000007C
S11300A033C0000031C000002FC000002DC000008C
S11300B02BC0000029C0000027C0000025C000009C
S11300C023C0000021C000001FC000001DC00000AC
S11300D01BC0000019C0000017C0000015C00000BC
S11300E013C0000011241FBECFEFD1E2DEBFCDBF8D
S11300F000E00CBF23E0A0E0B2E001C01D92A835EF
S1130100B207E1F752D16BC17BCF1F920F920FB6AA
S11301100F9211240BB60F922F933F934F936F932B
S11301207F938F939F93AF93BF93EF93FF934091EC
S11301304103E2E4F3E062E573E081E0942F982365
S113014059F0208131812150310931832083232BBF
S113015019F4982F90954923880F3296E617F707DC
S113016069F740934103E4E5F3E080819181A28142
S1130170B3810196A11DB11D80839183A283B383B2
S1130180FF91EF91BF91AF919F918F917F916F916B
S11301904F913F912F910F900BBE0F900FBE0F9078
S11301A01F90189582E08093B00095E09093B10081
S11301B09CE79093B30080937000109254031092C4
S11301C05503109256031092570378940895EF92B2
S11301D0FF920F931F93CF93DF93E0E0F2E00F2E93
S11301E0FFE1EF2EF2E0FF2EF02DF0920303E092F8
S11301F002030FE312E010930B0300930A03CFE50D
S1130200D2E0D0931303C0931203AFE7B2E0B093EC
S11302101B03A0931A036FE972E0709323036093A6
S113022022034FEB52E050932B0340932A032FED0C
S113023032E030933303209332038FEF92E09093B4
S11302403B0380933A03F0920103E092000310937E
S1130250090300930803D0931103C0931003B093D0
S11302601903A09318037093210360932003509300
S11302702903409328033093310320933003909350
S1130280390380933803F0930503E093040381E278
S113029092E090930D0380930C0382E492E0909398
S11302A015038093140383E692E090931D038093D7
S11302B01C0384E892E0909325038093240385EA49
S11302C092E090932D0380932C0386EC92E090931C
S11302D035038093340387EE92E090933D0380933B
S11302E03C03109207031092060310920F0310921E
S11302F00E03109217031092160310921F0310920C
S11303001E03109227031092260310922F031092BB
S11303102E03109237031092360310923F0310926B
S11303203E038AEA808380A3809340028093600224
S1130330809380028093A0028093C0028093E002A5
S11303408FEF809340031092410310924303109265
S113035042031092450310924403109247031092F3
S11303604603109249031092480310924B031092D3
S11303704A0310924D0310924C0310924F031092B3
S11303804E0310925103109250031092520381E0D5
S11303908093530307DFDF91CF911F910F91FF905B
S11303A0EF90089580E090E0089511DF81E180935B
S11303B0410384E090E0909343038093420383E0FD
S11303C090E090934B0380934A0385E090E09093F0
S11303D04503809344038AE090E0E4DFFCCFF89483
S10503E0FFCF49
S9030000FC
