:1000000071C0000081C000007FC000007DC0000002
:100010007BC0000079C0000077C0000075C0000000
:1000200073C0000071C000006FC000006DC0000010
:100030006BC00000B5C0000067C0000065C00000D4
:1000400063C0000061C000005FC000005DC0000030
:100050005BC0000059C0000057C0000055C0000040
:1000600053C0000051C000004FC000004DC0000050
:100070004BC0000049C0000047C0000045C0000060
:1000800043C0000041C000003FC000003DC0000070
:100090003BC0000039C0000037C0000035C0000080
:1000A00033C0000031C000002FC000002DC0000090
:1000B0002BC0000029C0000027C0000025C00000A0
:1000C00023C0000021C000001FC000001DC00000B0
:1000D0001BC0000019C0000017C0000015C00000C0
:1000E00013C0000011241FBECFEFD1E2DEBFCDBF91
:1000F00000E00CBF23E0A0E0B2E001C01D92A835F3
:10010000B207E1F72AD23DC27BCF2F923F924F92A6
:100110005F926F927F928F929F92AF92BF92CF9297
:10012000DF92EF92FF920F931F93CF93DF93B3E091
:10013000A2E54C91B3E0A0E068E0649FB001A60F97
:10014000B71F14968C918A5A09F0F3D1F894B3E052
:10015000A0E42D913C91232B2095222309F1B3E0BB
:10016000A2E54C91B3E0A3E55C91550F511D439579
:100170004770022E0522C9F37894DF91CF911F9129
:100180000F91FF90EF90DF90CF90BF90AF909F9036
:100190008F907F906F905F904F903F902F90089539
:1001A0001F920F920FB60F9211240BB60F922F933E
:1001B0003F934F935F938F939F93AF93BF93EF932F
:1001C000FF9320E030E091E0A1E4B3E08C9189233B
:1001D00091F0F901EE0FFF1FEE5BFC4F4081518162
:1001E0004150510951834083452B29F48C91492F6B
:1001F000409584238C93990F2F5F3F4F2830310512
:1002000029F7E4E5F3E080819181A281B381019631
:10021000A11DB11D80839183A283B383FF91EF91D0
:10022000BF91AF919F918F915F914F913F912F918E
:100230000F900BBE0F900FBE0F901F90189582E08D
:100240008093B00095E09093B1009CE79093B30049
:10025000809370001092540310925503109256032D
:100260001092570378940895AF92BF92CF92DF9285
:10027000EF92FF920F931F93CF93DF93E0E0F2E0B2
:100280000F2EF2E0EF2EF3E0FF2EF02D8FE192E043
:10029000D70111969C938E930AE013E08FE392E0CE
:1002A000E8019983888362E173E08FE592E0DB01E6
:1002B00011969C938E934AE153E08FE792E0EA0116
:1002C0009983888322E233E08FE992E0D901119685
:1002D0009C938E938AE293E0AFEBB2E0EC01B9839A
:1002E000A883C2E3D3E0AFEDB2E0B983A8830F2EB9
:1002F000FAE3AF2EF3E0BF2EF02D0F2EFFEFCF2E3F
:10030000F2E0DF2EF02DD5011196DC92CE92D701CE
:10031000ED90FC90F0920103E0920003D8010D9162
:100320001C911093090300930803DB016D917C91EC
:100330007093110360931003DA014D915C91509317
:10034000190340931803D9012D913C913093210357
:1003500020932003DC018D919C919093290380933D
:100360002803888199819093310380933003E501BC
:10037000888199819093390380933803F093050322
:10038000E093040381E292E090930D0380930C03C9
:1003900082E492E0909315038093140383E692E045
:1003A00090931D0380931C0384E892E090932503AF
:1003B0008093240385EA92E090932D0380932C038D
:1003C00086EC92E0909335038093340387EE92E0BD
:1003D00090933D0380933C03109207031092060311
:1003E00010920F0310920E0310921703109216032F
:1003F00010921F0310921E031092270310922603DF
:1004000010922F0310922E0310923703109236038E
:1004100010923F0310923E038AEA808380A3809368
:10042000400280936002809380028093A0028093B8
:10043000C0028093E0028FEF80934003109241034B
:10044000109243031092420310924503109244030A
:1004500010924703109246031092490310924803EA
:1004600010924B0310924A0310924D0310924C03CA
:1004700010924F0310924E031092510310925003AA
:100480001092520381E080935303D9DEDF91CF9124
:100490001F910F91FF90EF90DF90CF90BF90AF90A2
:1004A000089580E090E00895E82FF0E09F01220F8A
:1004B000331F220F331F220F331F20503E4FD9010D
:1004C000AE5FBE4F0D90BC91A02D5297EE0FFF1F57
:1004D000EE0FFF1FEE0FFF1FE050FD4FB183A08313
:1004E000F901EA5FFE4F71836083442379F0E0E411
:1004F000F3E0908121E030E0082E02C0220F331F8C
:100500000A94E2F72095292320830DC0E0E4F3E06C
:10051000908121E030E0082E02C0220F331F0A94A0
:10052000E2F7292B208390915203891301C00ECE4C
:100530000895279A85B1805885B92FEF84E39CE010
:10054000215080409040E1F700C00000F3CFDDDD96
:10055000FECFDBDDFECFD9DDFECF86DE41E069EAEE
:1005600072E081E0A1DF41E06BEA72E082E09CDFB3
:1005700041E067EA72E080E097DF8AE090E091DF97
:06058000FCCFF894FFCF50
:00000001FF
