S00E00004B65726E656C2E73726563B5
S113000071C0000081C000007FC000007DC00000FE
S11300107BC0000079C0000077C0000075C00000FC
S113002073C0000071C000006FC000006DC000000C
S11300306BC00000E2C1000067C0000065C00000A2
S113004063C0000061C000005FC000005DC000002C
S11300505BC0000059C0000057C0000055C000003C
S113006053C0000051C000004FC000004DC000004C
S11300704BC0000049C0000047C0000045C000005C
S113008043C0000041C000003FC000003DC000006C
S11300903BC0000039C0000037C0000035C000007C
S11300A033C0000031C000002FC000002DC000008C
S11300B02BC0000029C0000027C0000025C000009C
S11300C023C0000021C000001FC000001DC00000AC
S11300D01BC0000019C0000017C0000015C00000BC
S11300E013C0000011241FBECFEFD1E2DEBFCDBF8D
S11300F000E00CBF26E0A0E0B2E001C01D92A935EB
S1130100B207E1F74AD250C27BCF28E0829FC001F8
S11301101124FC01E050FA4FA081B181CD01019777
S1130120918380836C93A081B181CD0101979183E8
S113013080837C93A081B181CD01019791838083D9
S11301401C9208951F93CF93DF931FB7F8948FE702
S113015092E090930306809302068FEF92E09093CF
S11301600B0680930A068FE793E09093130680931F
S113017012068FEF93E090931B0680931A068FE785
S113018094E090932306809322068FEF94E090935B
S11301902B0680932A068FE795E09093330680938D
S11301A032068FEF95E090933B0680933A0680E009
S11301B092E0909305068093040680E892E0909381
S11301C00D0680930C0680E093E0909315068093CF
S11301D0140680E893E090931D0680931C0680E04B
S11301E094E0909325068093240680E894E090930D
S11301F02D0680932C0680E095E09093350680933D
S1130200340680E895E090933D0680933C0620E018
S113021030E06AEAC901880F991F880F991F880F77
S1130220991F80509E4FFC01EE5FFB4F408151812E
S1130230F901EE0FFF1FEE0FFF1FEE0FFF1FE0503F
S1130240FA4F51834083FC01EA5FFB4F1182108215
S113025032970190F081E02D6083F901EE0FFF1FCA
S1130260EE5BF94F118210822F5F3F4F283031052A
S113027089F68EEF80934006109241061092520642
S113028081E0809353068DB79EB78F3F914298F4D7
S1130290EFEFF1E2C0E0D6E0A881B9819D012150E1
S11302A0310939832883319721812C932DB73EB7A7
S11302B02E173F0788F380910006909101069EBF98
S11302C08DBFEAD01FBFDF91CF911F910895AC017C
S11302D02FB7F89480915306E1E4F6E09081982BCF
S11302E09083E0915206F0E0EE0FFF1FEE5BF94FB2
S11302F0518340832FBF0895279A85B1805885B9CB
S11303002FEF84E39CE0215080409040E1F700C04F
S11303100000F3CFAF92BF92CF92DF92EF92FF92A1
S11303200F931F93CF93DF93F82E5B01E42EC82E17
S1130330D12CE601CC0FDD1FCC0FDD1FCC0FDD1F50
S1130340C050DE4FFE01EE5FFB4F8081918186013C
S1130350000F111F000F111F000F111F00501A4F23
S1130360F801918380838F2DD0DEF8018081918103
S1130370819791838083CA5FDB4FB982A882E110A1
S11303800EC0E0E4F6E0208181E090E00F2C02C092
S1130390880F991F0A94E2F7822B80830EC0E0E451
S11303A0F6E0208181E090E00F2C02C0880F991FB5
S11303B00A94E2F780958223808380915206F81292
S11303C011C0F601EE0FFF1FEE0FFF1FEE0FFF1F10
S11303D0EC5FF94F0190F081E02D80818A3A09F0B9
S11303E08BDF75D0DF91CF911F910F91FF90EF902C
S11303F0DF90CF90BF90AF9008951F920F920FB6E9
S11304000F9211240BB60F922F933F934F935F9348
S11304108F939F93AF93BF93EF93FF9320E030E0CC
S113042091E0A1E4B6E08C91892391F0F901EE0FFB
S1130430FF1FEE5BF94F40815181415051095183B7
S11304404083452B29F48C91492F409584238C9328
S1130450990F2F5F3F4F2830310529F7E4E5F6E087
S113046080819181A281B3810196A11DB11D8083F8
S11304709183A283B383FF91EF91BF91AF919F9139
S11304808F915F914F913F912F910F900BBE0F90E1
S11304900FBE0F901F90189582E08093B00095E0F6
S11304A09093B1009CE79093B300809370001092F6
S11304B05406109255061092560610925706089547
S11304C0789483B78F6083BF8895F89408952F92AA
S11304D03F924F925F926F927F928F929F92AF92D0
S11304E0BF92CF92DF92EF92FF920F931F93CF931D
S11304F0DF939091400680914106892B809559F4B1
S113050000E416E0C1E4D6E0DBDFF80190818881E5
S1130510892B8095C9F3E091520690915306EF5FC1
S1130520E770990F911D292F2823C9F3E0935206F0
S113053090935306F0E0EE0FFF1FEE0FFF1FEE0F38
S1130540FF1FE050FA4F808191819EBF8DBFDF91E4
S1130550CF911F910F91FF90EF90DF90CF90BF90BC
S1130560AF909F908F907F906F905F904F903F904F
S11305702F907894089510E814B9C4E1D0E02F9A2C
S113058088EC90E0A4DE2F9882E390E0A0DE21972F
S1130590B1F780E197E29BDEEFCFD4DD41E06BEB76
S10F05A072E080E0B7DEFFCFF894FFCFDC
S9030000FC
