S0110000506F776572546573742E7372656366
S113000071C00000D5C000008CC000008AC0000090
S113001088C0000086C0000084C0000082C00000C8
S113002080C000007EC000007CC000007AC00000D8
S113003078C0000076C0000074C0000072C00000E8
S113004070C000006EC000006CC000006AC00000F8
S113005068C0000066C0000064C0000062C0000008
S113006060C000005EC000005CC000005AC0000018
S113007058C0000056C0000054C0000052C0000028
S113008050C000004EC000004CC000004AC0000038
S113009048C0000046C0000044C0000042C0000048
S11300A040C000003EC000003CC000003AC0000058
S11300B038C0000036C0000034C0000032C0000068
S11300C030C000002EC000002CC000002AC0000078
S11300D028C0000026C0000024C0000022C0000088
S11300E020C0000011241FBECFEFD1E2DEBFCDBF80
S11300F000E00CBF13E0A0E0B2E0E0E3F9E000E0D0
S11301000BBF02C007900D92AC3CB107D9F723E0B6
S1130110ACECB3E001C01D92A13DB207E1F774D18C
S113012005C46ECF682F80E0ABC30895CF93DF93EF
S1130130EC018881882329F02196F4DF89918111CB
S1130140FCCFDF91CF9108958091CC038111FCCF36
S1130150089583B783BF83B7816083BF889508956B
S113016083B7826083BF83B7816083BF8895089516
S113017083B7846083BF83B7816083BF8895089504
S113018083B7866083BF83B7816083BF88950895F2
S113019083B78C6083BF83B7816083BF88950895DC
S11301A083B78E6083BF83B7816083BF88950895CA
S11301B01F920F920FB60F9211241092CC030F903E
S11301C00FBE0F901F9018958091CF038093640009
S11301D08091D0038093650008951092640010927A
S11301E0650008952EE230E040E855E260E070E0FA
S11301F080E020D284EA90E09093CE038093CD03F4
S11302001092D0031092CF03E8DF5098589A82E0FE
S11302108093690081E08DBB789408958AE292E02E
S113022085DF83E392E082DF8091CF0385FF03C003
S113023084E678DF02C085E675DF87E492E076DF46
S11302408091CF0383FF03C084E66CDF02C085E6A0
S113025069DF8BE592E06ADF8091CF0386FF03C0FC
S113026084E660DF02C085E65DDF8FE692E05EDF54
S11302708091CF039091D00393FF03C084E652DFB3
S113028002C085E64FDF83E892E050DF8091CF0320
S11302909091D00394FF03C084E644DF02C085E656
S11302A041DF87E992E042DF8091CF039091D00350
S11302B095FF03C084E636DF02C085E633DF8BEAB0
S11302C092E034DF8091CF0381FF03C084E62ADF0C
S11302D002C085E627DF8FEB92E028DF8091CF0311
S11302E09091D00390FF03C084E61CDF02C085E632
S11302F019DF83ED92E01ADF8091CF039091D00350
S113030091FF03C084E60EDF02C085E60BDF87EEB3
S113031092E00CDF8091CF039091D00392FF03C051
S113032084E600DF02C085E6FDDE8BEF92E0FEDEB0
S11303308091CF0380FF03C084E6F4DE02C085E62B
S1130340F1DE8FE093E0F2DE8091CF0382FF03C001
S113035084E6E8DE02C085E6E5DE83E293E0E6DEDD
S11303608091CF0387FF03C084E6DCDE02C085E60C
S1130370D9DE82E493E0DADE87E393E0D7DE80918E
S1130380CD039091CE0320E0843A920731F485E4C2
S113039093E0CCDEE0ECF0E033C020E0893A920751
S11303A021F484E593E0C2DEF5CF20E0803B9207A0
S11303B021F48FE593E0BADEEDCF20E0883B92078D
S11303C021F48CE693E0B2DEE5CF20E0803C920796
S11303D021F48DE793E0AADEDDCF20E0883C92078C
S11303E021F48EE893E0A2DED5CF805D904021F425
S11303F08CE993E09BDECECF8EEA93E097DECACF02
S1130400808186FFFDCF08955F926F927F928F92D5
S11304109F92AF92BF92CF92DF92EF92FF920F938F
S11304201F93CF93DF930F2EFCE1CF2EF2E0DF2E4C
S1130430F02D0F2EFAE28F2EF2E09F2EF02D0F2ECC
S1130440FCE1AF2EF2E0BF2EF02D77247394C0E0D0
S1130450D2E0B9C0C7DEE52CF62CF601808191818B
S11304609093CE038093CD03F801819191918F01F4
S11304709093D0038093CF03D1DEA6DE7092CC0399
S1130480E091CD03F091CE031995A016B10611F7B2
S1130490A9DEF701808191819093CE038093CD03EF
S11304A02A813B818C819D81822B932B2E813F81DC
S11304B0822B932B28853985822B932B2A853B8588
S11304C0822B932B2C853D85822B932B2E853F8568
S11304D0822B932B28893989822B932B2A893B8958
S11304E0822B932B2C893D89822B932B2E893F8938
S11304F0822B932B288D398D822B932B2A8D3B8D28
S1130500822B932B9093D0038093CF0387DE5CDE02
S11305107092CC03E091CD03F091CE03199562DE85
S1130520F701808191819093CE038093CD032A813A
S11305303B818C819D81822B932B2E813F81822B49
S1130540932B28853985822B932B2A853B85822BF7
S1130550932B2C853D85822B932B9093D0038093F2
S1130560CF035CDE31DE7092CC03E091CD03F091D9
S1130570CE03199537DEF2E0CF0ED11CF70180814E
S113058091819093CE038093CD032E853F858889F6
S11305909989822B932B2A893B89822B932B2C8933
S11305A03D89822B932B9093D0038093CF0336DE27
S11305B00BDE7092CC03E091CD03F091CE0319953C
S11305C0C814D90429F000E012E05C2C6D2C42CF51
S11305D080E090E0DF91CF911F910F91FF90EF9019
S11305E0DF90CF90BF90AF909F908F907F906F904F
S11305F05F900895813061F028F0823079F0833083
S113060099F0089580EC90E0FB0191838083089534
S113061088EC90E0FB0191838083089580ED90E065
S1130620FB0191838083089580E391E0FB01918332
S113063080830895AF92BF92CF92DF92EF92FF92A0
S11306401F93CF93DF931F921F92CDB7DEB76A013A
S11306507B01122FBE016F5F7F4FCCDFC11486E98F
S1130660D806E104F10409F49AC094F5F0E8CF1631
S1130670F5E2DF06E104F10409F475C08CF4E0E668
S1130680CE16E9E0DE06E104F10409F45EC0F0EC04
S1130690CF16F2E1DF06E104F10409F45DC0B7C04E
S11306A0C1148BE4D806E104F10409F46AC0E0E85B
S11306B0CE16E0E7DE06E104F10409F469C0F0E4D3
S11306C0CF16F8E3DF06E104F10409F0A0C052C03C
S11306D0C11484E8D80683E0E806F10409F47BC079
S11306E0C4F4C114FCE2DF06F1E0EF06F10409F4FE
S11306F064C0C11482ECD80681E0E806F10409F470
S113070063C0C114E1EEDE06E104F10409F07FC028
S11307104DC0F0E2CF16F1EADF06F7E0EF06F10490
S113072009F467C080E4C81682E4D8068FE0E806BE
S1130730F10409F465C0E0E9CE16E0EDDE06E3E07D
S1130740EE06F10409F063C04DC0E981FA8180E44A
S113075093E09583848377C0E981FA8180EA91E00C
S11307609583848370C0E981FA818FEC90E095834E
S1130770848369C0E981FA818AE890E0958384835F
S113078062C0E981FA8187E690E0958384835BC047
S1130790E981FA8184E490E09583848354C0E981FB
S11307A0FA8183E390E0958384834DC0E981FA81E3
S11307B081E290E09583848346C0E981FA8189E1EE
S11307C090E0958384833FC0E981FA8180E190E0E1
S11307D09583848338C0E981FA8188E090E0958329
S11307E0848331C0E981FA8187E090E09583848332
S11307F02AC0E981FA8183E090E09583848323C051
S1130800E981FA8181E090E0958384831CC0A9800A
S1130810BA80D701C601880F991FAA1FBB1F880F72
S1130820991FAA1FBB1F9C01AD01220F331F441F38
S1130830551F60E074E284EF90E03AD02150310912
S1130840F50135832483E981FA8180818260808384
S1130850E981FA81818188618183E981FA818281D8
S1130860212F2E73282B22830F900F90DF91CF918D
S11308701F91FF90EF90DF90CF90BF90AF900895BD
S11308801F93CF93DF931F921F92CDB7DEB7162F1E
S1130890BE016F5F7F4FAEDEE981FA81808185FF03
S11308A0FDCF16830F900F90DF91CF911F91089584
S11308B0052E97FB16F400940FD057FD05D014D0E5
S11308C007FC02D046F408C0509540953095219518
S11308D03F4F4F4F5F4F0895909580957095619568
S11308E07F4F8F4F9F4F0895A1E21A2EAA1BBB1B67
S11308F0FD010DC0AA1FBB1FEE1FFF1FA217B307E8
S1130900E407F50720F0A21BB30BE40BF50B661FFD
S1130910771F881F991F1A9469F7609570958095C1
S113092090959B01AC01BD01CF010895F894FFCFD0
S11309300000200008004000000800100020020011
S1130940000100020004010004008000A400A900CA
S1130950B000B800C000C800D0004D6F64756C656D
S1130960733A000A0D2020202054494D30202020C5
S1130970203A20202020000A0D2020202054494D18
S113098031202020203A20202020000A0D20202081
S11309902054494D32202020203A20202020000AD3
S11309A00D2020202054494D33202020203A20209F
S11309B02020000A0D2020202054494D34202020DE
S11309C0203A20202020000A0D2020202054494DC8
S11309D035202020203A20202020000A0D2020202D
S11309E02055534152543020203A20202020000A20
S11309F00D2020202055534152543120203A2020EC
S1130A002020000A0D20202020555341525432202A
S1130A10203A20202020000A0D2020202055534178
S1130A2052543320203A20202020000A0D20202078
S1130A30204144435F202020203A20202020000A27
S1130A400D2020202053504920202020203A20200F
S1130A502020000A0D202020205457492020202047
S1130A60203A2020202000536C656570206D6F644F
S1130A70653A0A0D00202020206E6F5F736C656557
S1130A80700A0D002020202069646C650A0D002086
S1130A902020206164636E726D0A0D0020202020E6
S1130AA0706F7765725F646F776E0A0D0020202087
S1130AB020706F7765725F736176650A0D00202080
S1130AC020207374616E6462790A0D002020202056
S1130AD06578745F7374616E6462790A0D00202016
S1130AE020204E6F7420612076616C696420736CE1
S10F0AF06565705F6D6F64650A0D0000A1
S9030000FC
