S0110000506F776572546573742E7372656366
S113000071C000008EC000008CC000008AC00000D7
S113001088C0000086C0000084C0000082C00000C8
S113002080C000007EC000007CC000007AC00000D8
S113003078C0000076C0000074C0000072C00000E8
S113004070C000006EC000006CC000006AC00000F8
S113005068C0000066C0000064C0000062C0000008
S113006060C000005EC000005CC000005AC0000018
S113007058C0000056C0000054C0000052C0000028
S113008050C000004EC000004CC000004AC0000038
S113009048C0000046C0000044C0000042C0000048
S11300A040C000003EC000003CC000003AC0000058
S11300B038C0000036C0000034C0000032C0000068
S11300C030C000002EC000002CC000002AC0000078
S11300D028C0000026C0000024C0000022C0000088
S11300E020C0000011241FBECFEFD1E2DEBFCDBF80
S11300F000E00CBF19E0A0E0B2E0ECE5FEE000E0B7
S11301000BBF02C007900D92A839B107D9F729E0B7
S1130110A8E9B9E001C01D92AC39B207E1F7C2D435
S11301209BC66ECF682F80E041C60895CF93DF93BE
S1130130EC018881882329F02196F4DF89918111CB
S1130140FCCFDF91CF910895FFCF13BE81E083BF31
S11301508895089582E083BF81E083BF88950895E0
S113016084E083BF81E083BF8895089586E083BFE0
S113017081E083BF889508958CE083BF81E083BFCD
S1130180889508958EE083BF81E083BF88950895A4
S113019080919A098093640080919B098093650003
S11301A00895EF92FF920F931F93CF93DF937C01F7
S11301B080E0E7D58B3379F08701C0E0D0E080E0C0
S11301C0E0D58B3379F0F80181938F012196CC30FF
S11301D0D105A9F702C0C0E0D0E0CE0DDF1D219704
S11301E0188202C02196F9CFDF91CF911F910F9110
S11301F0FF90EF9008950F931F93CF93DF938C019B
S1130200C42FD0E01C161D06FCF4FC018081882359
S1130210F1F0FB0190819923E9F089132CC0DB01F3
S11302201196F801319620E030E002C0951325C004
S11302302F5F3F4F2C173D0781F09191992371F067
S11302405D915111F3CF0AC020E030E007C020E0F7
S113025030E004C020E030E001C09E01F801E20F6C
S1130260F31FDB01A20FB31F81E040819C9149176A
S113027029F080E003C080E001C080E0DF91CF91ED
S11302801F910F910895CF93DF93CDB7DEB72C97CD
S11302900FB6F894DEBF0FBECDBFCE01019681DF4D
S11302A04CE060E072E0CE010196A5DF882369F09E
S11302B085E092E03BDF80919A0990919B098062EE
S11302C090939B0980939A09FFC04CE066E172E029
S11302D0CE01019690DF882369F08BE192E026DF5E
S11302E080919A0990919B09886090939B098093CF
S11302F09A09EAC04CE06CE272E0CE0101967BDF21
S1130300882369F081E392E011DF80919A0990914A
S11303109B09806490939B0980939A09D5C04CE013
S113032062E472E0CE01019666DF882369F087E417
S113033092E0FCDE80919A0990919B0998609093D9
S11303409B0980939A09C0C04CE068E572E0CE0135
S1130350019651DF882369F08DE592E0E7DE809114
S11303609A0990919B09906190939B0980939A09B3
S1130370ABC04CE06EE672E0CE0101963CDF882310
S113038069F083E792E0D2DE80919A0990919B090B
S1130390906290939B0980939A0996C04CE064E81C
S11303A072E0CE01019627DF882369F08BE892E0A2
S11303B0BDDE80919A0990919B09826090939B097C
S11303C080939A0981C04CE06EE972E0CE010196F7
S11303D012DF882369F085EA92E0A8DE80919A0909
S11303E090919B09916090939B0980939A096CC0AA
S11303F04CE068EB72E0CE010196FDDE882369F0E3
S11304008FEB92E093DE80919A0990919B09926020
S113041090939B0980939A0957C04CE062ED72E077
S1130420CE010196E8DE882369F089ED92E07EDE54
S113043080919A0990919B09946090939B09809371
S11304409A0942C04CE06CEE72E0CE010196D3DE14
S1130450882369F081EF92E069DE80919A09909196
S11304609B09816090939B0980939A092DC04CE06D
S113047062E073E0CE010196BEDE882369F086E077
S113048093E054DE80919A0990919B098460909343
S11304909B0980939A0918C04CE066E173E0CE0191
S11304A00196A9DE882369F08AE193E03FDE80911A
S11304B09A0990919B09806890939B0980939A096B
S11304C003C08AE293E032DE2C960FB6F894DEBFC6
S11304D00FBECDBFDF91CF910895CF93DF93CDB7FA
S11304E0DEB72C970FB6F894DEBF0FBECDBFCE019A
S11304F0019657DE4CE060E072E0CE0101967BDEAF
S1130500882369F08FEA93E011DE80919A09909133
S11305109B098F7D90939B0980939A09FFC04CE0BF
S113052066E172E0CE01019666DE882369F08FEB06
S113053093E0FCDD80919A0990919B09877F9093C9
S11305409B0980939A09EAC04CE06CE272E0CE0108
S1130550019651DE882369F08FEC93E0E7DD80910A
S11305609A0990919B098F7B90939B0980939A0998
S1130570D5C04CE062E472E0CE0101963CDE8823F3
S113058069F08FED93E0D2DD80919A0990919B09F7
S1130590977F90939B0980939A09C0C04CE068E5CB
S11305A072E0CE01019627DE882369F08FEE93E096
S11305B0BDDD80919A0990919B099F7E90939B0940
S11305C080939A09ABC04CE06EE672E0CE010196CE
S11305D012DE882369F08FEF93E0A8DD80919A09F9
S11305E090919B099F7D90939B0980939A0996C053
S11305F04CE064E872E0CE010196FDDD882369F0E9
S11306008FE094E093DD80919A0990919B098D7F0E
S113061090939B0980939A0981C04CE06EE972E043
S1130620CE010196E8DD882369F081E294E07EDD65
S113063080919A0990919B099E7F90939B09809346
S11306409A096CC04CE068EB72E0CE010196D3DDF0
S1130650882369F083E394E069DD80919A0990919D
S11306609B099D7F90939B0980939A0957C04CE006
S113067062ED72E0CE010196BEDD882369F085E467
S113068094E054DD80919A0990919B099B7F90930B
S11306909B0980939A0942C04CE06CEE72E0CE0153
S11306A00196A9DD882369F087E594E03FDD809118
S11306B09A0990919B098E7F90939B0980939A0944
S11306C02DC04CE062E073E0CE01019694DD8823F6
S11306D069F087E694E02ADD80919A0990919B095C
S11306E08B7F90939B0980939A0918C04CE066E134
S11306F073E0CE0101967FDD882369F086E794E0FC
S113070015DD80919A0990919B098F7790939B09AD
S113071080939A0903C085E894E008DD2C960FB60F
S1130720F894DEBF0FBECDBFDF91CF910895CF9374
S1130730DF93CDB7DEB72C970FB6F894DEBF0FBEAC
S1130740CDBFCE0101962DDD4CE06AE075E0CE010F
S1130750019651DD882351F083E195E0E7DC84EADA
S113076090E090939909809398096FC04CE067E2F8
S113077075E0CE0101963FDD882351F08CE295E0CF
S1130780D5DC85EA90E090939909809398095DC03F
S11307904CE06CE375E0CE0101962DDD882351F029
S11307A083E495E0C3DC8AEA90E09093990980930E
S11307B098094BC04CE065E575E0CE0101961BDD60
S11307C0882351F080E695E0B1DC80EB90E09093D3
S11307D099098093980939C04CE066E775E0CE0129
S11307E0019609DD882351F081E895E09FDC86EBD2
S11307F090E0909399098093980927C04CE06EEAA1
S113080075E0CE010196F7DC882351F087E995E085
S11308108DDC8CEB90E0909399098093980915C036
S11308204CE06AEA75E0CE010196E5DC882351F0DC
S113083086EB95E07BDC82EC90E0909399098093C1
S1130840980903C08DEC95E071DC2C960FB6F894F2
S1130850DEBF0FBECDBFDF91CF91089585E496E052
S113086065DC88E596E062DC81E696E05FDC8091F9
S11308709A0985FF03C084E655DC02C085E652DC94
S113088085E796E053DC80919A0983FF03C084E6F0
S113089049DC02C085E646DC89E896E047DC8091C5
S11308A09A0986FF03C084E63DDC02C085E63ADC93
S11308B08DE996E03BDC80919A0990919B0993FF26
S11308C003C084E62FDC02C085E62CDC81EB96E0D5
S11308D02DDC80919A0990919B0994FF03C084E6D2
S11308E021DC02C085E61EDC85EC96E01FDC8091ED
S11308F09A0990919B0995FF03C084E613DC02C01A
S113090085E610DC89ED96E011DC80919A0981FF7F
S113091003C084E607DC02C085E604DC8DEE96E0C5
S113092005DC80919A0990919B0990FF03C084E6AD
S1130930F9DB02C085E6F6DB81E097E0F7DB809126
S11309409A0990919B0991FF03C084E6EBDB02C0F6
S113095085E6E8DB85E197E0E9DB80919A099091EF
S11309609B0992FF03C084E6DDDB02C085E6DADB87
S113097089E297E0DBDB80919A0980FF03C084E67B
S1130980D1DB02C085E6CEDB8DE397E0CFDB80913F
S11309909A0982FF03C084E6C5DB02C085E6C2DB98
S11309A081E597E0C3DB80919A0987FF03C084E661
S11309B0B9DB02C085E6B6DB85E198E0B7DB85E606
S11309C097E0B4DB809198099091990920E0843AEA
S11309D0920731F483E797E0A9DBE0ECF0E033C061
S11309E020E0853A920721F482E897E09FDBF5CF77
S11309F020E08A3A920721F48DE897E097DBEDCF67
S1130A0020E0803B920721F48AE997E08FDBE5CF71
S1130A1020E0863B920721F48BEA97E087DBDDCF69
S1130A2020E08C3B920721F48CEB97E07FDBD5CF61
S1130A30825C904021F48AEC97E078DBCECF8CED99
S1130A4097E074DBCACF808186FFFDCFA1DBE09104
S1130A509809F091990919950895CF9380E091D15F
S1130A60C82F843649F018F4823681F011C08536D7
S1130A7029F0833729F00CC006DC12C02EDD10C02B
S1130A80809198099091990952DE0AC0E7DE08C066
S1130A9089EF97E04BDB8C2F45DB85E198E046DB63
S1130AA0CF9108952EE230E040E855E260E070E036
S1130AB080E041D010929B0910929A0984EA90E058
S1130AC090939909809398098BE098E02FDB88E153
S1130AD098E02CDB81E498E029DB8BE698E026DBC8
S1130AE080EA98E023DB86EE98E020DB84E499E05A
S1130AF01DDBB3DFFECF813061F028F0823079F066
S1130B00833099F0089580EC90E0FB019183808319
S1130B10089588EC90E0FB0191838083089580ED33
S1130B2090E0FB0191838083089580E391E0FB01D1
S1130B30918380830895AF92BF92CF92DF92EF9218
S1130B40FF921F93CF93DF931F921F92CDB7DEB70F
S1130B506A017B01122FBE016F5F7F4FCCDFC1148E
S1130B6086E9D806E104F10409F49AC094F5F0E8A2
S1130B70CF16F5E2DF06E104F10409F475C08CF444
S1130B80E0E6CE16E9E0DE06E104F10409F45EC015
S1130B90F0ECCF16F2E1DF06E104F10409F45DC0E4
S1130BA0B7C0C1148BE4D806E104F10409F46AC0A7
S1130BB0E0E8CE16E0E7DE06E104F10409F469C0DA
S1130BC0F0E4CF16F8E3DF06E104F10409F0A0C075
S1130BD052C0C11484E8D80683E0E806F10409F49D
S1130BE07BC0C4F4C114FCE2DF06F1E0EF06F104BB
S1130BF009F464C0C11482ECD80681E0E806F1046B
S1130C0009F463C0C114E1EEDE06E104F10409F065
S1130C107FC04DC0F0E2CF16F1EADF06F7E0EF0641
S1130C20F10409F467C080E4C81682E4D8068FE0B2
S1130C30E806F10409F465C0E0E9CE16E0EDDE064D
S1130C40E3E0EE06F10409F063C04DC0E981FA81E6
S1130C5080E493E09583848377C0E981FA8180EA14
S1130C6091E09583848370C0E981FA818FEC90E0F0
S1130C709583848369C0E981FA818AE890E0958349
S1130C80848362C0E981FA8187E690E09583848356
S1130C905BC0E981FA8184E490E09583848354C045
S1130CA0E981FA8183E390E0958384834DC0E981EF
S1130CB0FA8181E290E09583848346C0E981FA81D8
S1130CC089E190E0958384833FC0E981FA8180E1E2
S1130CD090E09583848338C0E981FA8188E090E0CC
S1130CE09583848331C0E981FA8187E090E095831C
S1130CF084832AC0E981FA8183E090E09583848328
S1130D0023C0E981FA8181E090E0958384831CC04B
S1130D10A980BA80D701C601880F991FAA1FBB1FDB
S1130D20880F991FAA1FBB1F9C01AD01220F331FFF
S1130D30441F551F60E074E284EF90E04FD02150CF
S1130D403109F50135832483E981FA818081826048
S1130D508083E981FA81818188618183E981FA81D3
S1130D608281212F2E73282B22830F900F90DF91E5
S1130D70CF911F91FF90EF90DF90CF90BF90AF90F5
S1130D800895CF93DF931F921F92CDB7DEB7BE01B4
S1130D906F5F7F4FB0DEE981FA8180818823ECF7B1
S1130DA086810F900F90DF91CF9108951F93CF9379
S1130DB0DF931F921F92CDB7DEB7162FBE016F5F70
S1130DC07F4F99DEE981FA81808185FFFDCF16830B
S1130DD00F900F90DF91CF911F910895052E97FBEF
S1130DE016F400940FD057FD05D014D007FC02D0A0
S1130DF046F408C050954095309521953F4F4F4F8C
S1130E005F4F089590958095709561957F4F8F4FB2
S1130E109F4F0895A1E21A2EAA1BBB1BFD010DC012
S1130E20AA1FBB1FEE1FFF1FA217B307E407F50796
S1130E3020F0A21BB30BE40BF50B661F771F881F72
S1130E40991F1A9469F760957095809590959B0108
S10F0E50AC01BD01CF010895F894FFCF60
S1130E5C54494D300054494D302064697361626CBF
S1130E6C65642E0A0D0054494D310054494D31200E
S1130E7C64697361626C65642E0A0D0054494D32C9
S1130E8C0054494D322064697361626C65642E0AA6
S1130E9C0D0054494D330054494D3320646973613A
S1130EAC626C65642E0A0D0054494D340054494D4E
S1130EBC342064697361626C65642E0A0D005449B4
S1130ECC4D350054494D352064697361626C656419
S1130EDC2E0A0D005553415254300055534152546F
S1130EEC302064697361626C65642E0A0D0055537D
S1130EFC4152543100555341525431206469736149
S1130F0C626C65642E0A0D005553415254320055DF
S1130F1C53415254322064697361626C65642E0AC5
S1130F2C0D00555341525433005553415254332000
S1130F3C64697361626C65642E0A0D004144435FFD
S1130F4C004144435F2064697361626C65642E0ADA
S1130F5C0D00535049005350492064697361626C0D
S1130F6C65642E0A0D00545749005457492064698E
S1130F7C7361626C65642E0A0D000A496E76616CAD
S1130F8C6964206172672E2056616C6964206172F9
S1130F9C677320666F72206420636F6D6D616E647D
S1130FAC20696E636C7564653A2054494D302C206D
S1130FBC54494D312C2054494D322C2054494D3335
S1130FCC2C2054494D342C2054494D352C20555348
S1130FDC415254302C205553415254312C205553EA
S1130FEC415254322C205553415254332C204144F9
S1130FFC435F2C205350492C205457490A0D00545C
S113100C494D3020656E61626C65642E0A0D005486
S113101C494D3120656E61626C65642E0A0D005475
S113102C494D3220656E61626C65642E0A0D005464
S113103C494D3320656E61626C65642E0A0D005453
S113104C494D3420656E61626C65642E0A0D005442
S113105C494D3520656E61626C65642E0A0D005530
S113106C534152543020656E61626C65642E0A0DD6
S113107C0055534152543120656E61626C65642E87
S113108C0A0D0055534152543220656E61626C65F1
S113109C642E0A0D0055534152543320656E61621F
S11310AC6C65642E0A0D004144435F20656E6162D9
S11310BC6C65642E0A0D0053504920656E61626C98
S11310CC65642E0A0D0054574920656E61626C6587
S11310DC642E0A0D000A496E76616C696420617293
S11310EC672E2056616C6964206172677320666F89
S11310FC72206520636F6D6D616E6420696E636C24
S113110C7564653A2054494D302C2054494D312C8A
S113111C2054494D322C2054494D332C2054494DE4
S113112C342C2054494D352C205553415254302CD9
S113113C205553415254312C205553415254322C86
S113114C205553415254332C204144435F2C20539B
S113115C50492C205457490A0D006E6F5F736C650F
S113116C657000536574206E6F5F736C65657020D9
S113117C6D6F64650A0D0069646C650053657420B9
S113118C69646C65206D6F64650A0D006164636E3F
S113119C726D00536574206164636E726D206D6FA3
S11311AC64650A0D00706F7765725F646F776E000B
S11311BC53657420706F7765725F646F776E206D02
S11311CC6F64650A0D00706F7765725F7361766585
S11311DC0053657420706F7765725F736176652058
S11311EC6D6F64650A0D00536574207374616E64CD
S11311FC6279206D6F64650A0D006578745F737491
S113120C616E64627900536574206578745F7374DD
S113121C616E646279206D6F64650A0D000A0D4974
S113122C6E76616C6964206172672E2056616C69FC
S113123C64206172677320666F72207320636F6D14
S113124C6D616E6420696E636C7564653A206E6FB3
S113125C5F736C6565702C2069646C652C2061640B
S113126C636E726D2C20706F7765725F646F776E2E
S113127C2C20706F7765725F736176652C207374A4
S113128C616E6462792C206578745F7374616E642A
S113129C62790A0D00426567696E6E696E67207328
S11312AC6C6565703A0A0D004D6F64756C65733A24
S11312BC000A0D2020202054494D30202020203AB3
S11312CC20202020000A0D2020202054494D3120BC
S11312DC2020203A20202020000A0D2020202054F9
S11312EC494D32202020203A20202020000A0D20B5
S11312FC20202054494D33202020203A2020202027
S113130C000A0D2020202054494D34202020203A5E
S113131C20202020000A0D2020202054494D352067
S113132C2020203A20202020000A0D2020202055A7
S113133C534152543020203A20202020000A0D2002
S113134C20202055534152543120203A2020202073
S113135C000A0D2020202055534152543220203AAB
S113136C20202020000A0D202020205553415254C7
S113137C3320203A20202020000A0D202020204158
S113138C44435F202020203A20202020000A0D20F6
S113139C20202053504920202020203A2020202097
S11313AC000A0D2020202054574920202020203AC8
S11313BC2020202000536C656570206D6F64653AA5
S11313CC0A0D00202020206E6F5F736C6565700A17
S11313DC0D002020202069646C650A0D002020205B
S11313EC206164636E726D0A0D0020202020706FE2
S11313FC7765725F646F776E0A0D00202020207071
S113140C6F7765725F736176650A0D00202020206A
S113141C7374616E6462790A0D0020202020657853
S113142C745F7374616E6462790A0D00202020204D
S113143C4E6F7420612076616C696420736C6565F1
S113144C705F6D6F64650A0D00556E6B6E6F776E11
S113145C20636F6D6D616E643A2000436F6D6D6136
S113146C6E64733A200A0D0065205B6D6F64756CB5
S113147C655D3B20202020203A20202020656E61D1
S113148C626C65732061206D6F64756C652E0A0D3A
S113149C0064205B6D6F64756C655D3B20202020BF
S11314AC203A2020202064697361626C657320618A
S11314BC206D6F64756C652E0A0D0073205B736C64
S11314CC656570206D6F64655D3B203A202020209B
S11314DC73657473206120736C656570206D6F6423
S11314EC6520746F20626520757365642E0A0D0087
S11314FC622020202020202020202020202020209A
S113150C3A20202020656E746572732067697665B5
S113151C6E20736C656570206D6F646520776974DB
S113152C682064697361626C6564206D6F64756CAA
S113153C65732E0A0D004D6F64756C65733A2054F7
S113154C494D302C2054494D312C2054494D322CCA
S113155C2054494D332C2054494D342C2054494D9E
S113156C352C205553415254302C20555341525450
S113157C312C205553415254322C20555341525442
S113158C332C204144435F2C205350492C20545776
S113159C490A0D00536C656570206D6F6465733A70
S11315AC206E6F5F736C6565702C2069646C652CA0
S11315BC206164636E726D2C20706F7765725F644A
S11315CC6F776E2C20706F7765725F736176652C04
S11315DC207374616E6462792C206578745F737403
S10B15EC616E6462790A0D00CE
S9030000FC
