:1000000071C0000081C000007FC000007DC0000002
:100010007BC0000079C0000077C0000075C0000000
:1000200073C0000071C000006FC000006DC0000010
:100030006BC00000D1C1000021C2000065C00000FB
:1000400063C0000061C000005FC000005DC0000030
:100050005BC0000059C0000057C0000055C0000040
:1000600053C0000051C000004FC000004DC0000050
:100070004BC0000049C0000047C0000045C0000060
:1000800043C0000041C000003FC000003DC0000070
:100090003BC0000039C0000037C0000035C0000080
:1000A00033C0000031C000002FC000002DC0000090
:1000B0002BC0000029C0000027C0000025C00000A0
:1000C00023C0000021C000001FC000001DC00000B0
:1000D0001BC0000019C0000017C0000015C00000C0
:1000E00013C0000011241FBECFEFD1E2DEBFCDBF91
:1000F00000E00CBF27E0A0E0B2E001C01D92A837ED
:10010000B207E1F790D226C37BCF0895089528E087
:10011000829FC0011124FC01E050FA4FA081B181FF
:10012000CD010197918380836C93A081B181CD0132
:100130000197918380837C93A081B181CD01019748
:10014000918380831C920895FF920F931F93CF9306
:10015000DF93C82FF42EDFB7F89490E08C01000FE6
:10016000111F000F111F000F111F00501A4F880F91
:10017000991F880F991F880F991F80509E4FFC016F
:10018000EE5FFB4F20813181F80131832083FC0138
:10019000EA5FFB4F718360838C2FB9DFF8018081A8
:1001A00091819C012152310931832083FC01B09758
:1001B00020E82083FF2079F0E0E4F6E081E090E0A1
:1001C0000C2E02C0880F991F0A94E2F78095908147
:1001D0008923808311C0E0E4F6E081E090E00C2EFA
:1001E00002C0880F991F0A94E2F79081892B8083BF
:1001F00003C0DFD1DFBF05C080915206C817C9F325
:10020000F9CFDF91CF911F910F91FF900895CF9378
:10021000DF93DA0168177907A0F4FC0131966F5F6C
:100220007F4FCD91DC911197829188832D913C91E4
:1002300011972150310911963C932E93E617F70739
:1002400081F7DF91CF910895CF93DF93F894E0E0A9
:10025000F2E0C0E0D6E08FE792E099838883909344
:10026000030680930206F0930506E09304062AEA4B
:10027000208386E890E090930706809306064FEF70
:1002800052E0509309064093080650930B064093A2
:100290000A06E0E8F2E0F0930D06E0930C062083F6
:1002A00090930F0680930E064FE753E0509311068C
:1002B000409310065093130640931206E0E0F3E0DB
:1002C000F0931506E093140620839093170680930D
:1002D00016064FEF53E050931906409318065093BB
:1002E0001B0640931A06E0E8F3E0F0931D06E09346
:1002F0001C06208390931F0680931E064FE754E050
:1003000050932106409320065093230640932206E3
:10031000E0E0F4E0F0932506E09324062083909338
:100320002706809326064FEF54E05093290640930A
:10033000280650932B0640932A06E0E8F4E0F09359
:100340002D06E0932C06208390932F0680932E0693
:100350004FE755E0509331064093300650933306F3
:1003600040933206E0E0F5E0F0933506E093340682
:10037000208390933706809336064FEF55E05093D5
:1003800039064093380650933B0640933A06E0E81E
:10039000F5E0F0933D06E0933C06208390933F0602
:1003A00080933E066DB77EB7AE018FEF91E22FDFEF
:1003B000888199819EBF8DBF8EEF809340061092F9
:1003C00041061092520681E08093530658D057D1CF
:1003D0007894DF91CF9108951F920F920FB60F92EC
:1003E00011240BB60F922F933F934F936F937F93EC
:1003F0008F939F93AF93BF93EF93FF93E3EBF0E063
:1004000080818750808340914106E2E4F6E062E516
:1004100076E081E0942F982359F02081318121509A
:10042000310931832083232B19F4982F9095492388
:10043000880F3296E617F70769F740934106E4E51F
:10044000F6E080819181A281B3810196A11DB11D49
:1004500080839183A283B383FF91EF91BF91AF918A
:100460009F918F917F916F914F913F912F910F901D
:100470000BBE0F900FBE0F901F9018952CC01092BE
:10048000B00084E08093B10089EF8093B3008FE8DF
:100490008093B40086E0809370001092540610920E
:1004A0005506109256061092570608959C019FB764
:1004B000F894E0915206F0E0EE0FFF1FEE5BF94F6B
:1004C00031832083E1E4F6E0208180915306822B82
:1004D00080839FBF00C00F921F922F923F924F9236
:1004E0005F926F927F928F929F92AF92BF92CF92C4
:1004F000DF92EF92FF920F931F932F933F934F93AF
:100500005F936F937F938F939F93AF93BF93CF939B
:10051000DF93EF93FF930FB60F928DB79EB7E091E5
:100520005206F0E0EE0FFF1FEE0FFF1FEE0FFF1F52
:10053000E050FA4F918380833CC0E4EBF0E080818F
:1005400081578083E0E7F0E0808184608083E091E0
:100550005206F0E0EE0FFF1FEE0FFF1FEE0FFF1F22
:10056000E050FA4F808191819EBF8DBF0F900FBEEA
:10057000FF91EF91DF91CF91BF91AF919F918F91BB
:100580007F916F915F914F913F912F911F910F91AB
:10059000FF90EF90DF90CF90BF90AF909F908F90A3
:1005A0007F906F905F904F903F902F901F900F9093
:1005B0001895E0E7F0E080818B7F8083E091520620
:1005C000F0E0EE0FFF1FEE0FFF1FEE0FFF1FEC5FBF
:1005D000F94F0190F081E02D80818A3A09F095DD94
:1005E000A0E4B6E0E1E4F6E02FE09C918081892B65
:1005F000809529F423BF78948895F894F6CFA2E5E6
:10060000B6E0E3E5F6E09C919F5F97709C93908144
:10061000990F1124911D90839823A9F38ECF82E323
:1006200090E044DFFCCF10DE41E06FE073E087E054
:100630008BDD41E06FE073E086E086DD41E06FE056
:1006400073E085E081DD41E06FE073E084E07CDD14
:1006500041E06FE073E083E077DD41E06FE073E05D
:1006600082E072DD41E06FE073E081E06DDD41E04A
:100670006FE073E080E068DD80E090E0089588E35B
:1006800097E090935F0680935E0689E397E09093EE
:1006900067068093660688E597E090936F068093DF
:1006A0006E0689E597E0909377068093760688EF4B
:1006B00096E090935D0680935C0689EF96E09093B8
:1006C00065068093640688E197E090936D068093B9
:1006D0006C0689E197E0909375068093740688EB29
:1006E00096E090935B0680935A0689EB96E0909390
:1006F00063068093620688ED96E090936B06809384
:100700006A0689ED96E0909373068093720688E7F7
:1007100096E0909359068093580689E796E0909367
:1007200061068093600688E996E09093690680935D
:10073000680689E996E09093710680937006E4E676
:10074000F0E080818D7F8083E5E6F0E080818A7F24
:0807500080830895F894FFCFA7
:00000001FF
