S00E00004B65726E656C2E73726563B5
S113000071C0000081C000007FC000007DC00000FE
S11300107BC0000079C0000077C0000075C00000FC
S113002073C0000071C000006FC000006DC000000C
S11300306BC00000EAC100003AC2000065C00000C5
S113004063C0000061C000005FC000005DC000002C
S11300505BC0000059C0000057C0000055C000003C
S113006053C0000051C000004FC000004DC000004C
S11300704BC0000049C0000047C0000045C000005C
S113008043C0000041C000003FC000003DC000006C
S11300903BC0000039C0000037C0000035C000007C
S11300A033C0000031C000002FC000002DC000008C
S11300B02BC0000029C0000027C0000025C000009C
S11300C023C0000021C000001FC000001DC00000AC
S11300D01BC0000019C0000017C0000015C00000BC
S11300E013C0000011241FBECFEFD1E2DEBFCDBF8D
S11300F000E00CBF26E0A0E0B2E001C01D92A835EC
S1130100B207E1F791D299C27BCF279A85B1805883
S113011085B92FEF84E39CE0215080409040E1F7C3
S113012000C00000F3CF279A85B1805885B92FEF1E
S113013083ED90E3215080409040E1F700C000003F
S1130140F3CF28E0829FC0011124FC01E050FA4F54
S1130150A081B181CD010197918380836C93A081AB
S1130160B181CD010197918380837C93A081B1817A
S1130170CD010197918380831C920895FF920F9380
S11301801F93CF93DF93C82FF42EDFB7F89490E03A
S11301908C01000F111F000F111F000F111F0050C1
S11301A01A4F880F991F880F991F880F991F805025
S11301B09E4FFC01EE5FFB4F20813181F8013183BA
S11301C02083FC01EA5FFB4F718360838C2FB9DFCE
S11301D0F801808191819C0121523109318320836E
S11301E0FC01B09720E82083FF2079F0E0E4F6E0FA
S11301F081E090E00C2E02C0880F991F0A94E2F768
S1130200809590818923808311C0E0E4F6E081E049
S113021090E00C2E02C0880F991F0A94E2F7908197
S1130220892B808303C0C9D1DFBF05C080915206EA
S1130230C817C9F3F9CFDF91CF911F910F91FF90A8
S11302400895CF93DF93DA0168177907A0F4FC01CE
S113025031966F5F7F4FCD91DC91119782918883A6
S11302602D913C9111972150310911963C932E9375
S1130270E617F70781F7DF91CF910895CF93DF93C6
S1130280F894E0E0F2E0C0E0D6E08FE792E09983F2
S113029088839093030680930206F0930506E09307
S11302A004062AEA208383E990E09093070680936A
S11302B006064FEF52E05093090640930806509308
S11302C00B0640930A06E0E8F2E0F0930D06E09393
S11302D00C06208390930F0680930E064FE753E09D
S11302E05093110640931006509313064093120640
S11302F0E0E0F3E0F0931506E09314062083909376
S11303001706809316064FEF53E050931906409357
S1130310180650931B0640931A06E0E8F3E0F093A6
S11303201D06E0931C06208390931F0680931E06EF
S11303304FE754E050932106409320065093230640
S113034040932206E0E0F4E0F0932506E0932406CF
S1130350208390932706809326064FEF54E0509312
S113036029064093280650932B0640932A06E0E87A
S1130370F4E0F0932D06E0932C06208390932F064F
S113038080932E064FE755E0509331064093300694
S11303905093330640933206E0E0F5E0F0933506DF
S11303A0E0933406208390933706809336064FEF0C
S11303B055E0509339064093380650933B064093DA
S11303C03A06E0E8F5E0F0933D06E0933C0620832E
S11303D090933F0680933E066DB77EB7AE018FEFD4
S11303E091E22FDF888199819EBF8DBF8EEF80932C
S11303F04006109241061092520681E08093530603
S113040057D07894DF91CF9108951F920F920FB631
S11304100F9211240BB60F922F933F934F936F9328
S11304207F938F939F93AF93BF93EF93FF93E3EBEC
S1130430F0E080818458808340914106E2E4F6E054
S113044062E576E081E0942F982359F02081318190
S11304502150310931832083232B19F4982F90954F
S11304604923880F3296E617F70769F74093410648
S1130470E4E5F6E080819181A281B3810196A11D1A
S1130480B11D80839183A283B383FF91EF91BF91C8
S1130490AF919F918F917F916F914F913F912F9148
S11304A00F900BBE0F900FBE0F901F90189517C0A2
S11304B01092B00085E08093B1008CE78093B30084
S11304C08FE78093B40086E0809370001092540606
S11304D010925506109256061092570608950F92E0
S11304E01F922F923F924F925F926F927F928F92C0
S11304F09F92AF92BF92CF92DF92EF92FF920F93AF
S11305001F932F933F934F935F936F937F938F9397
S11305109F93AF93BF93CF93DF93EF93FF930FB664
S11305200F928DB79EB7E0915206F0E0EE0FFF1FD9
S1130530EE0FFF1FEE0FFF1FE050FA4F91838083F1
S11305403CC08091B20081588093B400E0E7F0E0B1
S1130550808184608083E0915206F0E0EE0FFF1FFB
S1130560EE0FFF1FEE0FFF1FE050FA4F80819181C5
S11305709EBF8DBF0F900FBEFF91EF91DF91CF9182
S1130580BF91AF919F918F917F916F915F914F91A7
S11305903F912F911F910F91FF90EF90DF90CF909B
S11305A0BF90AF909F908F907F906F905F904F908F
S11305B03F902F901F900F901895E0E7F0E0808116
S11305C08B7F8083E0915206F0E0EE0FFF1FEE0F69
S11305D0FF1FEE0FFF1FEC5FF94F0190F081E02D3C
S11305E080818A3A09F091DDA0E4B6E0E1E4F6E026
S11305F02FE09C918081892B809529F423BF7894E6
S11306008895F894F6CFA2E5B6E0E3E5F6E09C9190
S11306109F5F97709C939081990F1124911D9083F3
S11306209823A9F38ECFFFCF29DE41E063E173E085
S111063080E0A4DD80E090E00895F894FFCF10
S9030000FC
